{
  "_format": "hh-sol-artifact-1",
  "contractName": "SimpleMafiaEscrow",
  "sourceName": "src/contracts/SimpleMafiaEscrow.sol",
  "abi": [
    {
      "inputs": [],
      "stateMutability": "nonpayable",
      "type": "constructor"
    },
    {
      "inputs": [],
      "name": "AlreadyJoined",
      "type": "error"
    },
    {
      "inputs": [],
      "name": "DisputeWindowActive",
      "type": "error"
    },
    {
      "inputs": [],
      "name": "GameAlreadyFinalized",
      "type": "error"
    },
    {
      "inputs": [],
      "name": "GameAlreadyStarted",
      "type": "error"
    },
    {
      "inputs": [],
      "name": "GameFull",
      "type": "error"
    },
    {
      "inputs": [],
      "name": "GameNotFound",
      "type": "error"
    },
    {
      "inputs": [],
      "name": "GameNotStarted",
      "type": "error"
    },
    {
      "inputs": [],
      "name": "NoWinners",
      "type": "error"
    },
    {
      "inputs": [],
      "name": "NotAuthorized",
      "type": "error"
    },
    {
      "inputs": [
        {
          "internalType": "address",
          "name": "owner",
          "type": "address"
        }
      ],
      "name": "OwnableInvalidOwner",
      "type": "error"
    },
    {
      "inputs": [
        {
          "internalType": "address",
          "name": "account",
          "type": "address"
        }
      ],
      "name": "OwnableUnauthorizedAccount",
      "type": "error"
    },
    {
      "inputs": [],
      "name": "ReentrancyGuardReentrantCall",
      "type": "error"
    },
    {
      "inputs": [],
      "name": "TransferFailed",
      "type": "error"
    },
    {
      "inputs": [],
      "name": "WrongEntryFee",
      "type": "error"
    },
    {
      "anonymous": false,
      "inputs": [
        {
          "indexed": true,
          "internalType": "string",
          "name": "gameId",
          "type": "string"
        },
        {
          "indexed": true,
          "internalType": "address",
          "name": "player",
          "type": "address"
        },
        {
          "indexed": false,
          "internalType": "uint256",
          "name": "amount",
          "type": "uint256"
        }
      ],
      "name": "EmergencyRefund",
      "type": "event"
    },
    {
      "anonymous": false,
      "inputs": [
        {
          "indexed": true,
          "internalType": "string",
          "name": "gameId",
          "type": "string"
        },
        {
          "indexed": true,
          "internalType": "address",
          "name": "creator",
          "type": "address"
        }
      ],
      "name": "GameCreated",
      "type": "event"
    },
    {
      "anonymous": false,
      "inputs": [
        {
          "indexed": true,
          "internalType": "string",
          "name": "gameId",
          "type": "string"
        },
        {
          "indexed": false,
          "internalType": "address[]",
          "name": "winners",
          "type": "address[]"
        },
        {
          "indexed": false,
          "internalType": "uint256",
          "name": "totalPayout",
          "type": "uint256"
        }
      ],
      "name": "GameFinalized",
      "type": "event"
    },
    {
      "anonymous": false,
      "inputs": [
        {
          "indexed": true,
          "internalType": "string",
          "name": "gameId",
          "type": "string"
        },
        {
          "indexed": false,
          "internalType": "uint256",
          "name": "startTime",
          "type": "uint256"
        }
      ],
      "name": "GameStarted",
      "type": "event"
    },
    {
      "anonymous": false,
      "inputs": [
        {
          "indexed": true,
          "internalType": "address",
          "name": "previousOwner",
          "type": "address"
        },
        {
          "indexed": true,
          "internalType": "address",
          "name": "newOwner",
          "type": "address"
        }
      ],
      "name": "OwnershipTransferred",
      "type": "event"
    },
    {
      "anonymous": false,
      "inputs": [
        {
          "indexed": true,
          "internalType": "string",
          "name": "gameId",
          "type": "string"
        },
        {
          "indexed": true,
          "internalType": "address",
          "name": "player",
          "type": "address"
        },
        {
          "indexed": false,
          "internalType": "uint256",
          "name": "playerCount",
          "type": "uint256"
        }
      ],
      "name": "PlayerJoined",
      "type": "event"
    },
    {
      "inputs": [],
      "name": "DISPUTE_WINDOW",
      "outputs": [
        {
          "internalType": "uint256",
          "name": "",
          "type": "uint256"
        }
      ],
      "stateMutability": "view",
      "type": "function"
    },
    {
      "inputs": [],
      "name": "ENTRY_FEE",
      "outputs": [
        {
          "internalType": "uint256",
          "name": "",
          "type": "uint256"
        }
      ],
      "stateMutability": "view",
      "type": "function"
    },
    {
      "inputs": [],
      "name": "MAX_PLAYERS",
      "outputs": [
        {
          "internalType": "uint256",
          "name": "",
          "type": "uint256"
        }
      ],
      "stateMutability": "view",
      "type": "function"
    },
    {
      "inputs": [
        {
          "internalType": "string",
          "name": "gameId",
          "type": "string"
        }
      ],
      "name": "createGame",
      "outputs": [],
      "stateMutability": "nonpayable",
      "type": "function"
    },
    {
      "inputs": [
        {
          "internalType": "string",
          "name": "gameId",
          "type": "string"
        }
      ],
      "name": "emergencyRefund",
      "outputs": [],
      "stateMutability": "nonpayable",
      "type": "function"
    },
    {
      "inputs": [
        {
          "internalType": "string",
          "name": "gameId",
          "type": "string"
        },
        {
          "internalType": "address[]",
          "name": "winners",
          "type": "address[]"
        }
      ],
      "name": "finalizeGame",
      "outputs": [],
      "stateMutability": "nonpayable",
      "type": "function"
    },
    {
      "inputs": [
        {
          "internalType": "string",
          "name": "",
          "type": "string"
        }
      ],
      "name": "games",
      "outputs": [
        {
          "internalType": "string",
          "name": "gameId",
          "type": "string"
        },
        {
          "internalType": "uint256",
          "name": "balance",
          "type": "uint256"
        },
        {
          "internalType": "bool",
          "name": "started",
          "type": "bool"
        },
        {
          "internalType": "uint256",
          "name": "startTime",
          "type": "uint256"
        },
        {
          "internalType": "bool",
          "name": "finalized",
          "type": "bool"
        }
      ],
      "stateMutability": "view",
      "type": "function"
    },
    {
      "inputs": [
        {
          "internalType": "string",
          "name": "gameId",
          "type": "string"
        }
      ],
      "name": "getGameInfo",
      "outputs": [
        {
          "internalType": "address[]",
          "name": "players",
          "type": "address[]"
        },
        {
          "internalType": "uint256",
          "name": "balance",
          "type": "uint256"
        },
        {
          "internalType": "bool",
          "name": "started",
          "type": "bool"
        },
        {
          "internalType": "uint256",
          "name": "startTime",
          "type": "uint256"
        },
        {
          "internalType": "bool",
          "name": "finalized",
          "type": "bool"
        },
        {
          "internalType": "address[]",
          "name": "winners",
          "type": "address[]"
        }
      ],
      "stateMutability": "view",
      "type": "function"
    },
    {
      "inputs": [],
      "name": "getTotalBalance",
      "outputs": [
        {
          "internalType": "uint256",
          "name": "",
          "type": "uint256"
        }
      ],
      "stateMutability": "view",
      "type": "function"
    },
    {
      "inputs": [
        {
          "internalType": "string",
          "name": "gameId",
          "type": "string"
        },
        {
          "internalType": "address",
          "name": "player",
          "type": "address"
        }
      ],
      "name": "isPlayerInGame",
      "outputs": [
        {
          "internalType": "bool",
          "name": "",
          "type": "bool"
        }
      ],
      "stateMutability": "view",
      "type": "function"
    },
    {
      "inputs": [
        {
          "internalType": "string",
          "name": "gameId",
          "type": "string"
        }
      ],
      "name": "joinGame",
      "outputs": [],
      "stateMutability": "payable",
      "type": "function"
    },
    {
      "inputs": [],
      "name": "owner",
      "outputs": [
        {
          "internalType": "address",
          "name": "",
          "type": "address"
        }
      ],
      "stateMutability": "view",
      "type": "function"
    },
    {
      "inputs": [
        {
          "internalType": "address",
          "name": "",
          "type": "address"
        }
      ],
      "name": "playerGameCounts",
      "outputs": [
        {
          "internalType": "uint256",
          "name": "",
          "type": "uint256"
        }
      ],
      "stateMutability": "view",
      "type": "function"
    },
    {
      "inputs": [],
      "name": "renounceOwnership",
      "outputs": [],
      "stateMutability": "nonpayable",
      "type": "function"
    },
    {
      "inputs": [
        {
          "internalType": "string",
          "name": "gameId",
          "type": "string"
        }
      ],
      "name": "startGame",
      "outputs": [],
      "stateMutability": "nonpayable",
      "type": "function"
    },
    {
      "inputs": [
        {
          "internalType": "address",
          "name": "newOwner",
          "type": "address"
        }
      ],
      "name": "transferOwnership",
      "outputs": [],
      "stateMutability": "nonpayable",
      "type": "function"
    }
  ],
  "bytecode": "0x608060405234801561001057600080fd5b506001600055338061003c57604051631e4fbdf760e01b81526000600482015260240160405180910390fd5b6100458161004b565b5061009d565b600180546001600160a01b038381166001600160a01b0319831681179093556040519116919082907f8be0079c531659141344cd1fd0a4f28419497f9722a3daafe3b4186f6b6457e090600090a35050565b611505806100ac6000396000f3fe6080604052600436106100f35760003560e01c806395056d921161008a578063f2fde38b11610059578063f2fde38b146102a1578063f585dc57146102c1578063f6d361cc146102d7578063fd1e375c146102f257600080fd5b806395056d9214610202578063c857575114610222578063d542c4d514610254578063d91cf08c1461027457600080fd5b80634411b3eb116100c65780634411b3eb1461017f5780636d20931a14610194578063715018a6146101c55780638da5cb5b146101da57600080fd5b806312b58349146100f8578063185de0511461011a5780632ebc05041461014a5780633d536a2e1461016c575b600080fd5b34801561010457600080fd5b50475b6040519081526020015b60405180910390f35b34801561012657600080fd5b5061013a610135366004610f7c565b610312565b6040519015158152602001610111565b34801561015657600080fd5b5061016a610165366004610fd0565b61035e565b005b61016a61017a366004610fd0565b610420565b34801561018b57600080fd5b50610107600981565b3480156101a057600080fd5b506101b46101af366004611028565b6105fd565b6040516101119594939291906110d9565b3480156101d157600080fd5b5061016a6106c4565b3480156101e657600080fd5b506001546040516001600160a01b039091168152602001610111565b34801561020e57600080fd5b5061016a61021d366004610fd0565b6106d8565b34801561022e57600080fd5b5061024261023d366004610fd0565b61089b565b60405161011196959493929190611197565b34801561026057600080fd5b5061016a61026f366004610fd0565b6109ce565b34801561028057600080fd5b5061010761028f3660046111e5565b60036020526000908152604090205481565b3480156102ad57600080fd5b5061016a6102bc3660046111e5565b610ada565b3480156102cd57600080fd5b50610107610e1081565b3480156102e357600080fd5b5061010766038d7ea4c6800081565b3480156102fe57600080fd5b5061016a61030d366004611207565b610b1d565b6000600284846040516103269291906112a1565b90815260408051602092819003830190206001600160a01b0394909416600090815260029094019091529091205460ff169392505050565b600282826040516103709291906112a1565b908152604051908190036020019020805461038a906112b1565b1590506103aa576040516309b3c62760e21b815260040160405180910390fd5b8181600284846040516103be9291906112a1565b908152604051908190036020019020916103d991908361133a565b5060405133906103ec90849084906112a1565b604051908190038120907fac707a3f26c90292ba0efc38489e4d1f6feb1e99176a84573a02232af25aa08090600090a35050565b610428610df6565b66038d7ea4c68000341461044f57604051635425860560e01b815260040160405180910390fd5b6000600283836040516104639291906112a1565b90815260200160405180910390209050806000018054610482906112b1565b90506000036104a4576040516309b3c62760e21b815260040160405180910390fd5b600481015460ff16156104ca5760405163ba26162b60e01b815260040160405180910390fd5b60018101546009116104ef5760405163b3ed896d60e01b815260040160405180910390fd5b33600090815260028201602052604090205460ff161561052157604051621d934160e11b815260040160405180910390fd5b6001808201805480830182556000918252602080832090910180546001600160a01b03191633908117909155825260028401905260408120805460ff1916909217909155600382018054349290610579908490611411565b90915550503360009081526003602052604081208054916105998361142a565b909155505060405133906105b090859085906112a1565b60405190819003812060018401548252907f677e9fb27b04f2cf5b63c58aacebac069b21b080b14b9184945ba8185f6407479060200160405180910390a3506105f96001600055565b5050565b8051602081830181018051600282529282019190930120915280548190610623906112b1565b80601f016020809104026020016040519081016040528092919081815260200182805461064f906112b1565b801561069c5780601f106106715761010080835404028352916020019161069c565b820191906000526020600020905b81548152906001019060200180831161067f57829003601f168201915b505050506003830154600484015460058501546006909501549394919360ff91821693501685565b6106cc610e20565b6106d66000610e4d565b565b6106e0610e20565b6106e8610df6565b6000600283836040516106fc9291906112a1565b9081526020016040518091039020905080600001805461071b906112b1565b905060000361073d576040516309b3c62760e21b815260040160405180910390fd5b600681015460ff16156107635760405163c67f080160e01b815260040160405180910390fd5b66038d7ea4c6800060005b600183015481101561087857600083600101828154811061079157610791611443565b60009182526020822001546040516001600160a01b039091169250829085908381818185875af1925050503d80600081146107e8576040519150601f19603f3d011682016040523d82523d6000602084013e6107ed565b606091505b505090508061080f576040516312171d8360e31b815260040160405180910390fd5b816001600160a01b031687876040516108299291906112a1565b604051908190038120868252907f6e723d89eae7d074c058774e081becb104014998cfef2c8b6cf8b0768255cb8c9060200160405180910390a3505080806108709061142a565b91505061076e565b505060068101805460ff1916600117905560006003909101556105f96001600055565b606060008060008060606000600289896040516108b99291906112a1565b908152602001604051809103902090508060010181600301548260040160009054906101000a900460ff1683600501548460060160009054906101000a900460ff16856007018580548060200260200160405190810160405280929190818152602001828054801561095457602002820191906000526020600020905b81546001600160a01b03168152600190910190602001808311610936575b50505050509550808054806020026020016040519081016040528092919081815260200182805480156109b057602002820191906000526020600020905b81546001600160a01b03168152600190910190602001808311610992575b50505050509050965096509650965096509650509295509295509295565b6109d6610e20565b6000600283836040516109ea9291906112a1565b90815260200160405180910390209050806000018054610a09906112b1565b9050600003610a2b576040516309b3c62760e21b815260040160405180910390fd5b600481015460ff1615610a515760405163ba26162b60e01b815260040160405180910390fd5b6001810154600914610a765760405163b3ed896d60e01b815260040160405180910390fd5b60048101805460ff19166001179055426005820155604051610a9b90849084906112a1565b604051908190038120428252907f2413c8c822dd51c2848cfe23301b09364cf75e237830dcb7a45d2b25f19e1b839060200160405180910390a2505050565b610ae2610e20565b6001600160a01b038116610b1157604051631e4fbdf760e01b8152600060048201526024015b60405180910390fd5b610b1a81610e4d565b50565b610b25610e20565b610b2d610df6565b600060028585604051610b419291906112a1565b90815260200160405180910390209050806000018054610b60906112b1565b9050600003610b82576040516309b3c62760e21b815260040160405180910390fd5b600481015460ff16610ba757604051633a5f7b5760e01b815260040160405180910390fd5b600681015460ff1615610bcd5760405163c67f080160e01b815260040160405180910390fd5b610e108160050154610bdf9190611411565b421015610bff5760405163e52e798f60e01b815260040160405180910390fd5b6000829003610c2157604051633728feb360e01b815260040160405180910390fd5b60005b82811015610ca557816002016000858584818110610c4457610c44611443565b9050602002016020810190610c5991906111e5565b6001600160a01b0316815260208101919091526040016000205460ff16610c935760405163ea8e4eb560e01b815260040160405180910390fd5b80610c9d8161142a565b915050610c24565b5060038101546000610cb78483611459565b60068401805460ff191660011790559050610cd6600784018686610e9f565b5060005b84811015610d8f576000868683818110610cf657610cf6611443565b9050602002016020810190610d0b91906111e5565b6001600160a01b03168360405160006040518083038185875af1925050503d8060008114610d55576040519150601f19603f3d011682016040523d82523d6000602084013e610d5a565b606091505b5050905080610d7c576040516312171d8360e31b815260040160405180910390fd5b5080610d878161142a565b915050610cda565b508686604051610da09291906112a1565b60405180910390207f8563ea36820fee3f6d1812437b72a93cb6cd4b01759220054e8cfab28311f74d868685604051610ddb9392919061147b565b60405180910390a2505050610df06001600055565b50505050565b600260005403610e1957604051633ee5aeb560e01b815260040160405180910390fd5b6002600055565b6001546001600160a01b031633146106d65760405163118cdaa760e01b8152336004820152602401610b08565b600180546001600160a01b038381166001600160a01b0319831681179093556040519116919082907f8be0079c531659141344cd1fd0a4f28419497f9722a3daafe3b4186f6b6457e090600090a35050565b828054828255906000526020600020908101928215610ef2579160200282015b82811115610ef25781546001600160a01b0319166001600160a01b03843516178255602090920191600190910190610ebf565b50610efe929150610f02565b5090565b5b80821115610efe5760008155600101610f03565b60008083601f840112610f2957600080fd5b50813567ffffffffffffffff811115610f4157600080fd5b602083019150836020828501011115610f5957600080fd5b9250929050565b80356001600160a01b0381168114610f7757600080fd5b919050565b600080600060408486031215610f9157600080fd5b833567ffffffffffffffff811115610fa857600080fd5b610fb486828701610f17565b9094509250610fc7905060208501610f60565b90509250925092565b60008060208385031215610fe357600080fd5b823567ffffffffffffffff811115610ffa57600080fd5b61100685828601610f17565b90969095509350505050565b634e487b7160e01b600052604160045260246000fd5b60006020828403121561103a57600080fd5b813567ffffffffffffffff8082111561105257600080fd5b818401915084601f83011261106657600080fd5b81358181111561107857611078611012565b604051601f8201601f19908116603f011681019083821181831017156110a0576110a0611012565b816040528281528760208487010111156110b957600080fd5b826020860160208301376000928101602001929092525095945050505050565b60a08152600086518060a084015260005b81811015611107576020818a0181015160c08684010152016110ea565b50600060c0828501015260c0601f19601f830116840101915050856020830152611135604083018615159052565b836060830152611149608083018415159052565b9695505050505050565b600081518084526020808501945080840160005b8381101561118c5781516001600160a01b031687529582019590820190600101611167565b509495945050505050565b60c0815260006111aa60c0830189611153565b8760208401528615156040840152856060840152841515608084015282810360a08401526111d88185611153565b9998505050505050505050565b6000602082840312156111f757600080fd5b61120082610f60565b9392505050565b6000806000806040858703121561121d57600080fd5b843567ffffffffffffffff8082111561123557600080fd5b61124188838901610f17565b9096509450602087013591508082111561125a57600080fd5b818701915087601f83011261126e57600080fd5b81358181111561127d57600080fd5b8860208260051b850101111561129257600080fd5b95989497505060200194505050565b8183823760009101908152919050565b600181811c908216806112c557607f821691505b6020821081036112e557634e487b7160e01b600052602260045260246000fd5b50919050565b601f82111561133557600081815260208120601f850160051c810160208610156113125750805b601f850160051c820191505b818110156113315782815560010161131e565b5050505b505050565b67ffffffffffffffff83111561135257611352611012565b6113668361136083546112b1565b836112eb565b6000601f84116001811461139a57600085156113825750838201355b600019600387901b1c1916600186901b1783556113f4565b600083815260209020601f19861690835b828110156113cb57868501358255602094850194600190920191016113ab565b50868210156113e85760001960f88860031b161c19848701351681555b505060018560011b0183555b5050505050565b634e487b7160e01b600052601160045260246000fd5b80820180821115611424576114246113fb565b92915050565b60006001820161143c5761143c6113fb565b5060010190565b634e487b7160e01b600052603260045260246000fd5b60008261147657634e487b7160e01b600052601260045260246000fd5b500490565b6040808252810183905260008460608301825b868110156114bc576001600160a01b036114a784610f60565b1682526020928301929091019060010161148e565b506020939093019390935250939250505056fea2646970667358221220ad98d706b30157a11af8ae21a952e3f8cb44f445c1576766d8cf9d5419ca1d2364736f6c63430008140033",
  "linkReferences": {},
  "deployedLinkReferences": {}
}